:100000000C941A010C944B010C944B010C944B0171
:100010000C944B010C944B010C944B010C944B0130
:100020000C944B010C944B010C944B010C944B0120
:100030000C944B010C944B010C944B010C944B0110
:100040000C944B010C946E040C944B010C944B01DA
:100050000C944B010C944B010C944B010C949A039F
:100060000C944B010C944B010C944B010C944B01E0
:100070000C944B010C944B010C944B010C944B01D0
:100080000C9440040C944B010C944B010C944B01C8
:100090000C944B010C944B010C944B010C944B01B0
:1000A0000C944B010C944B010C9412040C944B01D6
:1000B0000C944B010C944B010C944B010C94E403F5
:1000C0000C944B010C944B010C944B010C944B0180
:1000D0000C944B010C944B010C944B010C944B0170
:1000E0000C944B010C94AD010C94C1010C94C5010E
:1000F0000C94A9010C947D010C94C9010C94CF01BE
:100100000C9482010C94B3010C94B7010C94060674
:100110000C94A0010C949C010C94BB010C949801CC
:100120000C9494010C94D3010C94A30100002100C1
:10013000240027002A002D003000330001010000B8
:10014000040107010A0100002200250028002B00FD
:100150002E003100340002010000050108010B01EE
:1001600005050505070508080808020202020A0A33
:100170000808040404040101010101010101030351
:10018000030303030303040707070C0C0C0C0C0CFC
:100190000C0C0202020206060606060606060B0BF9
:1001A0000B0B0B0B0B0B010210202008081020403A
:1001B000102040800201020108040201010204082B
:1001C00010204080804020100804020180040201B9
:1001D0008040201008040201080402010102040802
:1001E00010204080010204081020408000000A0B0B
:1001F00002090C0D0E0807030401000000000000B6
:1002000000000000000000000000000000000000EE
:1002100000000000000000001211100000000000AB
:1002200000000000000000000000000000000000CE
:100230000000060611241FBECFEFD1E2DEBFCDBF06
:1002400000E00CBF12E0A0E0B2E0EEE8FDE000E06C
:100250000BBF02C007900D92A030B107D9F722E082
:10026000A0E0B2E001C01D92A43DB207E1F711E0A9
:10027000CAE1D1E000E006C021970109802FFE010C
:100280000E94BD06C931D10780E00807A9F70E9486
:10029000B7040C94C5060C940000282F30E0F90137
:1002A000E451FE4F9491F901EA55FE4F4491205AD2
:1002B0003E4FF9012491222309F435C0992311F10D
:1002C00091509231F8F4E92FF0E08827E559FE4F7C
:1002D0008F4F0C94BD069C01A0017D0194019801F3
:1002E0008201A301A901AD01B301B701BB01C101A5
:1002F000C5018201C901CF01D301809180008F77B0
:1003000080938000E22FF0E0EE0FFF1FEA5BFE4FCC
:10031000A591B4918FB7F894EC91611148C04095C4
:100320004E234C938FBF0895809180008F7DE8CF3E
:1003300080918000877FE4CF84B58F7784BDE2CF42
:1003400084B58F7DFBCF8091B0008F778093B00014
:10035000D9CF8091B0008F7DF9CF809190008F77B9
:1003600080939000CFCF809190008F7DF9CF8091C6
:100370009000877FF5CF8091A0008F778093A000B9
:10038000C1CF8091A0008F7DF9CF8091A000877FA1
:10039000F5CF809120018F7780932001B3CF80919A
:1003A00020018F7DF9CF80912001877FF5CF4E2BE3
:1003B000B8CF8F929F92AF92BF92FF920F931F93ED
:1003C000CF93DF93FC01F0808FE28F1508F44AC0D1
:1003D000828108E512E0081B110987FD1395000FC3
:1003E000111F000F111F8181C8E8D0E0C81BD1097F
:1003F00087FDD395CC0FDD1FCC0FDD1F4E010D2ED9
:10040000000CAA08BB089801012E000C440B550BE8
:10041000281939094A095B09DB010E94780624EB97
:1004200030E040E050E00E944E06820E931EA41E73
:10043000B51E8C169D062CF0E801801691060CF472
:10044000E4012297CC0FDD1F2FB7F8948F2D90E099
:10045000FC01EE0FFF1FE80FF91FEB5FFD4FD2838A
:10046000C1832FBFDF91CF911F910F91FF90BF905C
:10047000AF909F908F900895CF93DF93DC018C9184
:10048000803308F06DC0CB01FB01EA55FE4F24918B
:10049000805A9E4FFC018491882399F090E0880F48
:1004A000991FFC01E45DFE4FC591D491FC01EA5B0C
:1004B000FE4F859194918FB7F894E881E22BE88301
:1004C0008FBF8C91282F30E0F901EE0FFF1FE20F54
:1004D000F31FEB5FFD4F962F9F736081607C692B4C
:1004E000608311961C92119712961C9212972CE021
:1004F000622F0E94B106829FB001112430E020E0FB
:10050000AB01420F531FFA01EE0FFF1FE40FF51F5F
:10051000EB5FFD4F908196FD16C02F5F3F4F2C3053
:10052000310571F7813001F51092800082E08093EF
:1005300081001092850010928400B19A80916F0022
:10054000826080936F00EC918E2F90E0FC01EE0FA3
:10055000FF1FE80FF91FEB5FFD4F808180648083F0
:100560008C91DF91CF910895823061F410929000C8
:1005700080939100109295001092940088BB809314
:100580007100E1CF833069F41092A00082E0809383
:10059000A1001092A5001092A40089BB8093720064
:1005A000D2CF8111D0CF1092200182E0809321011F
:1005B00010922501109224018ABB80937300C3CF4F
:1005C000AF92BF92CF92DF92EF92FF920F931F9361
:1005D000CF93DF936B017A01EC01C050DE4F28818D
:1005E0003CE0389F8001399F100D1124A090040237
:1005F000B12C27FF1FC0FB011182108288818F5F01
:10060000888388819801280F311D87FD3A95F6016E
:100610002A153B051CF488818C30C4F180819181BE
:10062000049680349C4908F473C0F601808191815E
:10063000049670C088819801280F311D87FD3A9576
:100640002A153B05DCF68881A801480F511D87FD5E
:100650005A95FA01EE0FFF1FE40FF51FEB5FFD4FF8
:10066000808186FFCBCF8881F801E80FF11D87FDDF
:10067000FA95CF01EE0FFF1FE80FF91FEB5FFD4F5B
:10068000808160E08F730E944D01B8CF808191819D
:100690002881A801420F511D27FD5A959A01FA01A0
:1006A000EE0FFF1FE20FF31FEB5FFD4F2181328141
:1006B000820F931FF7019183808388819801280F0F
:1006C000311D87FD3A95F901EE0FFF1FE20FF31F71
:1006D000EB5FFD4F808186FF22C08881080F111DCE
:1006E00087FD1A95F801EE0FFF1FE00FF11FEB5F7A
:1006F000FD4F808161E08F73DF91CF911F910F914A
:10070000FF90EF90DF90CF90BF90AF900C944D0191
:1007100080E49CE9F701918380838FEF8883DF91E8
:10072000CF911F910F91FF90EF90DF90CF90BF90EE
:10073000AF9008951F920F920FB60F9211242F932E
:100740003F938F939F93AF93BF938091D0029091EB
:10075000D102A091D202B091D3023091CF0223E016
:10076000230F2D3758F50196A11DB11D2093CF02FF
:100770008093D0029093D102A093D202B093D3027F
:100780008091CB029091CC02A091CD02B091CE028B
:100790000196A11DB11D8093CB029093CC02A09332
:1007A000CD02B093CE02BF91AF919F918F913F91B7
:1007B0002F910F900FBE0F901F90189526E8230FD2
:1007C0000296A11DB11DD2CF1F920F920FB60F92AC
:1007D00011240BB60F922F933F934F935F936F9318
:1007E0007F938F939F93AF93BF93EF93FF9348E2D1
:1007F00051E064E271E090E080E00E94E002FF914D
:10080000EF91BF91AF919F918F917F916F915F9188
:100810004F913F912F910F900BBE0F900FBE0F90F5
:100820001F9018951F920F920FB60F9211240BB6BE
:100830000F922F933F934F935F936F937F938F9379
:100840009F93AF93BF93EF93FF9348EA50E064EA1E
:1008500070E083E090E00E94E002FF91EF91BF9191
:10086000AF919F918F917F916F915F914F913F9148
:100870002F910F900BBE0F900FBE0F901F901895E9
:100880001F920F920FB60F9211240BB60F922F9357
:100890003F934F935F936F937F938F939F93AF9308
:1008A000BF93EF93FF9348E950E064E970E082E082
:1008B00090E00E94E002FF91EF91BF91AF919F9174
:1008C0008F917F916F915F914F913F912F910F90F9
:1008D0000BBE0F900FBE0F901F9018951F920F9296
:1008E0000FB60F9211240BB60F922F933F934F9395
:1008F0005F936F937F938F939F93AF93BF93EF9388
:10090000FF9348E850E064E870E081E090E00E94E6
:10091000E002FF91EF91BF91AF919F918F917F91F5
:100920006F915F914F913F912F910F900BBE0F9060
:100930000FBE0F901F901895FC0190910402903308
:1009400098F481E0890F809304029083892F90E0CE
:10095000FC01EE0FFF1FE80FF91FEB5FFD4F88EB67
:100960009BE09283818308958FEF8083089578942C
:1009700084B5826084BD84B5816084BD85B58260A4
:1009800085BD85B5816085BD80916E008160809355
:100990006E001092810080918100826080938100BE
:1009A00080918100816080938100809180008160CE
:1009B000809380008091B10084608093B100809129
:1009C000B00081608093B00080919100826080933C
:1009D00091008091910081608093910080919000BE
:1009E0008160809390008091A10082608093A1003B
:1009F0008091A10081608093A1008091A00081601E
:100A00008093A000809121018260809321018091D8
:100A10002101816080932101809120018160809378
:100A2000200180917A00846080937A0080917A001E
:100A3000826080937A0080917A00816080937A004E
:100A400080917A00806880937A001092C10063E1FF
:100A500070E088EC92E00E943C0265E170E085EC79
:100A600092E00E943C0267E170E082EC92E00E941A
:100A70003C0269E170E08FEB92E00E943C026BE186
:100A800070E08CEB92E00E943C026DE170E089EB3B
:100A900092E00E943C026FE170E086EB92E00E94DF
:100AA0003C0261E270E083EB92E00E943C0263E270
:100AB00070E080EB92E00E943C0265E270E08DEA1B
:100AC00092E00E943C0267E270E08AEA92E00E94B3
:100AD0003C0269E270E087EA92E00E943C026BE22D
:100AE00070E084EA92E00E943C026DE270E081EAEC
:100AF00092E00E943C026FE270E08EE992E00E9478
:100B00003C0261E370E08BE992E00E943C0263E307
:100B100070E088E992E00E943C0265E370E085E9BC
:100B200092E00E943C026AE570E088EC92E00E944C
:100B3000D90168E770E085EC92E00E94D9016AE58E
:100B400070E082EC92E00E94D9016AE570E08FEBE0
:100B500092E00E94D90168E770E08CEB92E00E947D
:100B6000D9016AE570E089EB92E00E94D9016AE55B
:100B700070E086EB92E00E94D90168E770E083EBB9
:100B800092E00E94D9016AE570E080EB92E00E9459
:100B9000D9016AE570E08DEA92E00E94D90168E728
:100BA00070E08AEA92E00E94D9016AE570E087EA83
:100BB00092E00E94D9016AE570E084EA92E00E9426
:100BC000D90168E770E081EA92E00E94D9016AE504
:100BD00070E08EE992E00E94D9016AE570E08BE94D
:100BE00092E00E94D90168E770E088E992E00E94F3
:100BF000D9016AE570E085E992E00E94D901C0E080
:100C0000D0E02097F1F30E940000FBCF88EC92E047
:100C10000E949C0485EC92E00E949C0482EC92E08D
:100C20000E949C048FEB92E00E949C048CEB92E06B
:100C30000E949C0489EB92E00E949C0486EB92E067
:100C40000E949C0483EB92E00E949C0480EB92E063
:100C50000E949C048DEA92E00E949C048AEA92E041
:100C60000E949C0487EA92E00E949C0484EA92E03D
:100C70000E949C0481EA92E00E949C048EE992E02A
:100C80000E949C048BE992E00E949C0488E992E017
:100C90000E949C0485E992E00C949C04052E97FB2D
:100CA0001EF400940E94650657FD07D00E9480063E
:100CB00007FC03D04EF40C94650650954095309592
:100CC00021953F4F4F4F5F4F0895909580957095B8
:100CD00061957F4F8F4F9F4F08950E94A206A59F59
:100CE000900DB49F900DA49F800D911D1124089527
:100CF000B7FF0C946D060E946D06821B930B08953E
:100D0000A1E21A2EAA1BBB1BFD010DC0AA1FBB1F0F
:100D1000EE1FFF1FA217B307E407F50720F0A21B81
:100D2000B30BE40BF50B661F771F881F991F1A94EE
:100D300069F760957095809590959B01AC01BD0118
:100D4000CF010895A29FB001B39FC001A39F700D72
:100D5000811D1124911DB29F700D811D1124911DC3
:100D60000895991B79E004C0991F961708F0961B07
:100D7000881F7A95C9F780950895EE0FFF1F881F89
:0E0D80008BBF0790F691E02D1994F894FFCFE9
:00000001FF
