:100000000C945D000C9485000C9485000C94850084
:100010000C9485000C9485000C9485000C9485004C
:100020000C9485000C9485000C9485000C94F801C8
:100030000C9485000C9485000C9485000C9485002C
:100040000C94AE010C9485000C9485000C948500F2
:100050000C9485000C9485000C9485000C9485000C
:100060000C9485000C9485000000000024002700FB
:100070002A0000000000250028002B0004040404CE
:100080000404040402020202020203030303030342
:10009000010204081020408001020408102001021F
:1000A00004081020000000080002010000030407FB
:1000B0000000000000000000F10311241FBECFEF7C
:1000C000D8E0DEBFCDBF11E0A0E0B1E0E0E6F9E0AE
:1000D00002C005900D92A030B107D9F721E0A0E051
:1000E000B1E001C01D92A536B207E1F710E0CDE501
:1000F000D0E004C02197FE010E94A804CC35D107AE
:10010000C9F70E94CF020C94AE040C94000090E05A
:10011000FC01EC55FF4F2491FC01E057FF4F349157
:10012000FC01E458FF4FE491EE23C9F0222339F09B
:10013000233001F1A8F4213019F1223029F1F0E047
:10014000EE0FFF1FEE58FF4FA591B4918FB7F894B3
:10015000EC91611126C030953E233C938FBF0895EA
:100160002730A9F02830C9F0243049F78091800069
:100170008F7D03C0809180008F7780938000DFCFD8
:1001800084B58F7784BDDBCF84B58F7DFBCF809125
:10019000B0008F778093B000D2CF8091B0008F7D78
:1001A000F9CF3E2BDACF8F929F92AF92BF92FF9200
:1001B0000F931F93CF93DF93FC01F0808BE08F159B
:1001C00008F44AC0828108E512E0081B110987FD86
:1001D0001395000F111F000F111F8181C8E8D0E097
:1001E000C81BD10987FDD395CC0FDD1FCC0FDD1FB8
:1001F0004E010D2E000CAA08BB089801012E000C20
:10020000440B550B281939094A095B09DB010E9487
:10021000630424EB30E040E050E00E943904820E99
:10022000931EA41EB51E8C169D062CF0E8018016A8
:1002300091060CF4E4012297CC0FDD1F2FB7F89440
:100240008F2D90E0FC01EE0FFF1FE80FF91FEE5F0E
:10025000FE4FD283C1832FBFDF91CF911F910F91AA
:10026000FF90BF90AF909F908F900895CF93DF93B2
:10027000DC018C918C3008F06DC0CB01FB01E057A4
:10028000FF4F249184589F4FFC018491882399F05B
:1002900090E0880F991FFC01E859FF4FC591D49158
:1002A000FC01EE58FF4F859194918FB7F894E88147
:1002B000E22BE8838FBF8C91282F30E0F901EE0FFD
:1002C000FF1FE20FF31FEE5FFE4F962F9F736081BB
:1002D000607C692B608311961C92119712961C9278
:1002E00012972CE0622F0E949C04829FB00111247F
:1002F00030E020E0AB01420F531FFA01EE0FFF1F69
:10030000E40FF51FEE5FFE4F908196FD16C02F5F44
:100310003F4F2C30310571F781110FC010928000D2
:1003200082E0809381001092850010928400B19A3F
:1003300080916F00826080936F00EC918E2F90E02F
:10034000FC01EE0FFF1FE80FF91FEE5FFE4F8081EB
:10035000806480838C91DF91CF9108951F920F92DA
:100360000FB60F9211242F933F938F939F93AF93C8
:10037000BF938091610190916201A0916301B0915E
:1003800064013091600123E0230F2D3758F5019669
:10039000A11DB11D209360018093610190936201C2
:1003A000A0936301B093640180915C0190915D0121
:1003B000A0915E01B0915F010196A11DB11D8093D6
:1003C0005C0190935D01A0935E01B0935F01BF91CA
:1003D000AF919F918F913F912F910F900FBE0F90F2
:1003E0001F90189526E8230F0296A11DB11DD2CFAC
:1003F0001F920F920FB60F9211242F933F934F939A
:100400005F936F937F938F939F93AF93BF93CF939C
:10041000DF93EF93FF9380910001C0910101D0E041
:1004200087FF24C010928500109284008091000103
:100430008F5F8093000180910001082E000C990BC2
:100440008C179D0724F4809100018C30C4F18091B9
:10045000840090918500049680349C4908F47AC009
:100460008091840090918500049676C0809100016F
:10047000082E000C990B8C179D07C4F6E091000123
:100480008E2FEE0F990BFC01EE0FFF1FE80FF91FE7
:10049000EE5FFE4F808186FFC9CFE09100018E2F75
:1004A000EE0F990BFC01EE0FFF1FE80FF91FEE5F37
:1004B000FE4F808160E08F730E948700B7CF20914C
:1004C000840030918500E09100018E2FEE0F990B92
:1004D000FC01EE0FFF1FE80FF91FEE5FFE4F818159
:1004E0009281820F931F9093890080938800E091FE
:1004F00000018E2FEE0F990BFC01EE0FFF1FE80F8E
:10050000F91FEE5FFE4F808186FF11C0E091000170
:100510008E2FEE0F990BFC01EE0FFF1FE80FF91F56
:10052000EE5FFE4F808161E08F730E948700FF9134
:10053000EF91DF91CF91BF91AF919F918F917F917B
:100540006F915F914F913F912F910F900FBE0F9040
:100550001F90189580E49CE990938900809388000F
:100560008FEF80930001E3CFFC01909101019C305B
:1005700098F481E0890F809301019083892F90E0A6
:10058000FC01EE0FFF1FE80FF91FEE5FFE4F88EB37
:100590009BE09283818308958FEF80830895789400
:1005A00084B5826084BD84B5816084BD85B5826078
:1005B00085BD85B5816085BD80916E008160809329
:1005C0006E00109281008091810082608093810092
:1005D00080918100816080938100809180008160A2
:1005E000809380008091B10084608093B1008091FD
:1005F000B00081608093B00080917A008460809325
:100600007A0080917A00826080937A0080917A00EB
:10061000816080937A0080917A00806880937A006C
:100620001092C10063E170E089E591E00E9436011B
:1006300065E170E086E591E00E94360167E170E0D7
:1006400083E591E00E94360169E170E080E591E088
:100650000E9436016BE170E08DE491E00E9436016A
:100660006DE170E08AE491E00E9436016FE170E094
:1006700087E491E00E94360161E270E084E491E059
:100680000E94360163E270E081E491E00E9436014D
:1006900065E270E08EE391E00E94360167E270E06F
:1006A0008BE391E00E94360169E270E088E391E01B
:1006B0000E9436016BE270E085E391E00E94360112
:1006C0006DE270E082E391E00E9436016FE270E03B
:1006D0008FE291E00E94360161E370E08CE291E0EC
:1006E0000E94360163E370E089E291E00E943601E6
:1006F00065E370E086E291E00E9436016AE570E011
:1007000089E591E00E94D30068E770E086E591E01A
:100710000E94D3006AE570E083E591E00E94D30077
:100720006AE570E080E591E00E94D30068E770E040
:100730008DE491E00E94D3006AE570E08AE491E0E4
:100740000E94D3006AE570E087E491E00E94D30044
:1007500068E770E084E491E00E94D3006AE570E00D
:1007600081E491E00E94D3006AE570E08EE391E0BD
:100770000E94D30068E770E08BE391E00E94D30011
:100780006AE570E088E391E00E94D3006AE570E0DA
:1007900085E391E00E94D30068E770E082E391E096
:1007A0000E94D3006AE570E08FE291E00E94D300DE
:1007B0006AE570E08CE291E00E94D30068E770E0A7
:1007C00089E291E00E94D3006AE570E086E291E060
:1007D0000E94D300C0E0D0E02097F1F30E94000017
:1007E000FBCF89E591E00E94B40286E591E00E948A
:1007F000B40283E591E00E94B40280E591E00E949A
:10080000B4028DE491E00E94B4028AE491E00E9477
:10081000B40287E491E00E94B40284E491E00E9473
:10082000B40281E491E00E94B4028EE391E00E9460
:10083000B4028BE391E00E94B40288E391E00E944D
:10084000B40285E391E00E94B40282E391E00E9449
:10085000B4028FE291E00E94B4028CE291E00E9427
:10086000B40289E291E00E94B40286E291E00C9425
:10087000B402052E97FB1EF400940E94500457FD0D
:1008800007D00E946B0407FC03D04EF40C94500474
:1008900050954095309521953F4F4F4F5F4F0895AC
:1008A00090958095709561957F4F8F4F9F4F0895DC
:1008B0000E948D04A59F900DB49F900DA49F800D64
:1008C000911D11240895B7FF0C9458040E945804F8
:1008D000821B930B0895A1E21A2EAA1BBB1BFD01DC
:1008E0000DC0AA1FBB1FEE1FFF1FA217B307E4070F
:1008F000F50720F0A21BB30BE40BF50B661F771F67
:10090000881F991F1A9469F7609570958095909546
:100910009B01AC01BD01CF010895A29FB001B39F1F
:10092000C001A39F700D811D1124911DB29F700DF8
:10093000811D1124911D0895991B79E004C0991F10
:10094000961708F0961B881F7A95C9F78095089529
:10095000EE0FFF1F0590F491E02D0994F894FFCF5E
:00000001FF
